:100000000C9462000C948A000C948A000C948A0070
:100010000C948A000C948A000C948A000C948A0038
:100020000C948A000C948A000C948A000C948A0028
:100030000C948A000C948A000C948A000C948A0018
:100040000C94B0010C948A000C94E7020C948A0082
:100050000C948A000C948A000C948A000C948A00F8
:100060000C948A000C948A000000000024002700F1
:100070002A0000000000250028002B0000000000DE
:1000800023002600290004040404040404040202DA
:100090000202020203030303030301020408102007
:1000A0004080010204081020010204081020000012
:1000B0000007000201000003040600000000000029
:1000C00000006C0411241FBECFEFD8E0DEBFCDBF0F
:1000D00011E0A0E0B1E0ECECFCE002C005900D9274
:1000E000AA33B107D9F713E0AAE3B1E001C01D922A
:1000F000AE3DB107E1F710E0C4ECD0E004C02297B8
:10010000FE010E946006C23CD107C9F70E94A90106
:100110000C9464060C940000CF93DF938DE061E0B3
:100120000E949A02CAE3D1E081E00E945C028993B6
:10013000999383E0CA33D807B9F78DE060E00E9455
:100140009A02DF91CF910895CF93DF938BEC93E0E8
:1001500040E051E060E070E02AE030E00E94D0052D
:10016000CAE3D1E049915991662757FD6095762FF2
:100170008BEC93E02AE030E00E94D00583E0CA33A4
:10018000D80781F7DF91CF91089514C08DE061E029
:100190000E949A0266E970E080E090E00E94F80117
:1001A0008DE060E00E949A0266E970E080E090E0F5
:1001B0000E94F8018BEC93E00E941D04882331F328
:1001C00008950F931F938BEC93E00E941D048823E6
:1001D00009F4ADC08BEC93E00E94310484379105A3
:1001E00029F40E948C000E94A400A1C083379105CD
:1001F00089F48BEC93E060E071E00E94DD048BEC0D
:1002000093E064E171E00E94DD048BEC93E06AE12D
:1002100071E08BC080379105B9F48BEC93E00E94BC
:100220003104AC0144705070440F551F440F551FEA
:100230009C0122703070220F331F422B817090700E
:10024000482B4093B10073C08336910579F48BEC51
:1002500093E00E941D048823D1F38BEC93E00E946D
:10026000310490933D0380933C0361C08334910536
:1002700029F440913C0350913D0348C08C369105D0
:10028000C9F48BEC93E00E941D048230D0F38BEC18
:1002900093E00E9431048C018BEC93E00E943104C6
:1002A000382F20E0202B312B337030932E012093F8
:1002B0002D013DC08C34910539F440912D015091B0
:1002C0002E0160E070E026C085369105C1F48BEC0C
:1002D00093E00E941D048823D1F38BEC93E00E94ED
:1002E0003104C19739F481E090E090933B0380930F
:1002F0003A031DC010923B0310923A0318C0853494
:10030000910579F440913A0350913B03662757FDDC
:100310006095762F8BEC93E02AE030E00E94D005C8
:1003200006C08BEC93E06CE171E00E94DD041F914C
:100330000F9108958BEC93E040E052EC61E070E0A7
:100340000E9424038DE061E00E947A020E94C500B1
:1003500008950E9422020E949A010E94E100FDCFAE
:100360001F920F920FB60F9211242F933F938F93EA
:100370009F93AF93BF938091420390914303A091C9
:100380004403B0914503309146030196A11DB11D70
:10039000232F2D5F2D3720F02D570196A11DB11D64
:1003A000209346038093420390934303A093440316
:1003B000B093450380913E0390913F03A091400389
:1003C000B09141030196A11DB11D80933E0390930E
:1003D0003F03A0934003B0934103BF91AF919F911E
:1003E0008F913F912F910F900FBE0F901F901895F6
:1003F000EF92FF920F931F937B018C018FB7F894BC
:10040000409142035091430360914403709145032E
:100410008FBF2FB7F8948091420390914303A0912E
:100420004403B09145032FBF841B950BA60BB70B5C
:10043000E816F9060A071B0760F71F910F91FF9056
:10044000EF900895789484B5826084BD84B581600E
:1004500084BD85B5826085BD85B5816085BDEEE6CC
:10046000F0E0808181608083E1E8F0E0808182605B
:100470008083808181608083E0E8F0E0808181601A
:100480008083E1EBF0E0808184608083E0EBF0E04A
:10049000808181608083EAE7F0E0808184608083EE
:1004A0008081826080838081816080838081806898
:1004B00080831092C10008958F7090912F019295C2
:1004C000990F990F907C982B90937C0080917A00E3
:1004D000806480937A0080917A0086FDFCCF209121
:1004E000780040917900942F80E030E0282B392B60
:1004F000C9010895282F30E0C90186569F4FFC019D
:1005000094912A573F4FF9018491882391F0E82F65
:10051000F0E0EE0FFF1FE859FF4FA591B49166235D
:1005200029F48C91909589238C9308958C91892B33
:100530008C930895482F50E0CA0182559F4FFC01CB
:100540002491CA0186569F4FFC0194914A575F4FF0
:10055000FA0134913323D1F1222331F1233021F4F4
:10056000809180008F7705C0243031F48091800025
:100570008F7D8093800018C0213019F484B58F7767
:1005800004C0223021F484B58F7D84BD0DC0263097
:1005900021F48091B0008F7705C0273029F4809135
:1005A000B0008F7D8093B000E32FF0E0EE0FFF1FCF
:1005B000EE58FF4FA591B491662329F48C91909544
:1005C00089238C9308958C91892B8C9308951F9285
:1005D0000F920FB60F9211242F933F934F935F9377
:1005E0006F937F938F939F93AF93BF93EF93FF93FB
:1005F0004091C600E091C703F091C803CF01019676
:1006000060E870E00E94FA059C018091C903909116
:10061000CA032817390739F0E95BFC4F4083309350
:10062000C8032093C703FF91EF91BF91AF919F91B2
:100630008F917F916F915F914F913F912F910F908B
:100640000FBE0F901F9018955F926F927F928F92BE
:100650009F92AF92BF92CF92DF92EF92FF920F9351
:100660001F93CF93DF93EC013A014B01413482E4B5
:1006700058078FE0680780E078070CF07FC060E8DB
:1006800074E88EE190E0A40193010E942F062150AE
:10069000304040405040CA01B90122E030E040E023
:1006A00050E00E942F0659016A01A601950120958C
:1006B00030954095509594E0220F331F441F551FED
:1006C0009A95D1F760E074E284EF90E00E942F06E3
:1006D000CA01B9012FEF30E040E050E00E94DB0595
:1006E000A40193010E942F06C90181509F4F181643
:1006F00019061CF4522E5A9403C055245394521ACE
:1007000060E079E08DE390E0A40193010E942F0660
:100710002150304040405040CA01B90122E030E051
:1007200040E050E00E942F0620953095409550956E
:1007300083E0220F331F441F551F8A95D1F760E0D5
:1007400074E284EF90E00E942F06CA01B9012FEFF6
:1007500030E040E050E00E94DB05A40193010E94DC
:100760002F06C90181509F4F181619061CF4822FBD
:10077000815002C081E0821B851500F5E885F9856E
:1007800081E090E00A8802C0880F991F0A94E2F77E
:10079000808360E079E08DE390E0A40193010E9402
:1007A0002F062150304040405040CA01B90122E09C
:1007B00030E040E050E00E942F0604C0E885F98553
:1007C00010829501EC81FD813083EE81FF812083D1
:1007D000EA85FB85208141E050E0CA010E8402C019
:1007E000880F991F0A94E2F7282B2083EA85FB855E
:1007F0002081CA010F8402C0880F991F0A94E2F772
:10080000282B2083EA85FB858081088802C0440F5D
:10081000551F0A94E2F7842B8083DF91CF911F91BB
:100820000F91FF90EF90DF90CF90BF90AF909F908F
:100830008F907F906F905F900895DC011296ED91FC
:10084000FC911397E058FF4F8191919180589F4FF1
:1008500020813181821B930B60E870E00E94FA05D1
:100860000895CF93DF93DC011296ED91FC911397DD
:10087000EF01CE57DF4F48815981E058FF4F80810B
:100880009181E058F0408417950719F42FEF3FEF5E
:100890000CC0E40FF51F2081CA01019660E870E0EA
:1008A0000E94FA059983888330E0C901DF91CF91D6
:1008B0000895FC01A085B18521898C9190E0022EDC
:1008C00002C0959587950A94E2F780FFF6CF0484DD
:1008D000F585E02D6083089584E391E09093CC0347
:1008E0008093CB0387E493E09093CE038093CD0372
:1008F00085EC90E09093D0038093CF0384EC90E05C
:100900009093D2038093D10380EC90E09093D40332
:100910008093D30381EC90E09093D6038093D5032A
:1009200086EC90E09093D8038093D70384E0809383
:10093000D90383E08093DA0387E08093DB0385E0CB
:100940008093DC0381E08093DD0308950F931F9370
:10095000CF93DF938C01EB0109C02196D801ED9173
:10096000FC910190F081E02DC80109956881662312
:10097000A1F7DF91CF911F910F910895EF92FF9210
:100980000F931F93CF93DF938C017B01EA010CC07F
:10099000D7016D917D01D801ED91FC910190F0811D
:1009A000E02DC80109952197209791F7DF91CF910C
:1009B0001F910F91FF90EF900895DC01ED91FC9154
:1009C0000280F381E02D099508950F931F938C0108
:1009D000DC01ED91FC910190F081E02D6DE0099535
:1009E000D801ED91FC910190F081E02DC8016AE001
:1009F00009951F910F9108952F923F924F925F9208
:100A00006F927F928F929F92AF92BF92CF92DF921E
:100A1000EF92FF920F931F93DF93CF93CDB7DEB783
:100A2000A0970FB6F894DEBF0FBECDBF1C016A01C0
:100A30007B01411551056105710549F4DC01ED911A
:100A4000FC910190F081E02D60E3099554C0882469
:100A500099245401422E55246624772401E010E0A5
:100A60000C0F1D1F080D191DC701B601A30192012E
:100A70000E940D06F80160830894811C911CA11C42
:100A8000B11CC701B601A30192010E940D06C90164
:100A9000DA016C017D01C114D104E104F104F1F625
:100AA00081E0E82EF12CEC0EFD1EE80CF91C3E0155
:100AB0000894611C711CD501C4010197A109B109F9
:100AC0006C01C818D90814C0F601EE0DFF1D608135
:100AD0006A3010F4605D01C0695CD101ED91FC9158
:100AE0000190F081E02DC10109950894E108F10819
:100AF0006E147F0449F7A0960FB6F894DEBF0FBEC0
:100B0000CDBFCF91DF911F910F91FF90EF90DF90BC
:100B1000CF90BF90AF909F908F907F906F905F909D
:100B20004F903F902F900895EF92FF920F931F9355
:100B3000CF93DF93EC017A018B0177FF0FC0E8813F
:100B4000F9810190F081E02D6DE2099510950095F5
:100B5000F094E094E11CF11C011D111DCE01B801BF
:100B6000A7012AE00E94FC04DF91CF911F910F9111
:100B7000FF90EF900895DC012115310541F4ED91CE
:100B8000FC910190F081E02D642F099508952A30A1
:100B9000310519F40E94940508950E94FC040895FB
:100BA0000F931F938C010E94BB05C8010E94E504AE
:100BB0001F910F910895629FD001739FF001829F52
:100BC000E00DF11D649FE00DF11D929FF00D839FDC
:100BD000F00D749FF00D659FF00D9927729FB00D79
:100BE000E11DF91F639FB00DE11DF91FBD01CF018C
:100BF0001124089597FB092E07260AD077FD04D00B
:100C000049D006D000201AF4709561957F4F089561
:100C1000F6F7909581959F4F0895A1E21A2EAA1B91
:100C2000BB1BFD010DC0AA1FBB1FEE1FFF1FA2179C
:100C3000B307E407F50720F0A21BB30BE40BF50B99
:100C4000661F771F881F991F1A9469F76095709522
:100C5000809590959B01AC01BD01CF01089597FB54
:100C6000092E05260ED057FD04D0D7DF0AD0001C70
:100C700038F450954095309521953F4F4F4F5F4F39
:100C80000895F6F790958095709561957F4F8F4FF9
:100C90009F4F0895AA1BBB1B51E107C0AA1FBB1F92
:100CA000A617B70710F0A61BB70B881F991F5A95F8
:100CB000A9F780959095BC01CD010895EE0FFF1F17
:0C0CC0000590F491E02D0994F894FFCF0A
:100CCC0073636F70656475696E6F20766572736996
:100CDC006F6E2000302E303032000A00556E6B6E75
:100CEC006F776E20436F6D6D616E640A00000201B8
:0A0CFC00000000005904A604BE0425
:00000001FF
