:100000000C9462000C948A000C948A000C948A0070
:100010000C948A000C948A000C948A000C948A0038
:100020000C948A000C948C000C948A000C948A0026
:100030000C948A000C948A000C948A000C948A0018
:100040000C943D020C948A000C9474030C948A0066
:100050000C948A000C948A000C948A000C948A00F8
:100060000C948A000C948A000000000024002700F1
:100070002A0000000000250028002B0000000000DE
:1000800023002600290004040404040404040202DA
:100090000202020203030303030301020408102007
:1000A0004080010204081020010204081020000012
:1000B0000007000201000003040600000000000029
:1000C0000000F90411241FBECFEFD8E0DEBFCDBF82
:1000D00011E0A0E0B1E0E6EEFDE002C005900D9277
:1000E000A833B107D9F713E0A8E3B1E001C01D922E
:1000F000A13EB107E1F710E0C4ECD0E004C02297C4
:10010000FE010E94ED06C23CD107C9F70E943602EB
:100110000C94F1060C9400001F920F920FB60F92F0
:1001200011242F933F934F935F936F937F938F93FC
:100130009F93AF93BF93CF93DF93EF93FF93F89485
:1001400080913D0390913E030197F9F4C0913F03E4
:10015000D0914003CF3FD10531F028F010923E03FB
:1001600010923D0312C081E00E94E902CC0FDD1F16
:10017000C85CDE4F9983888380913F039091400350
:1001800001969093400380933F03809138038093BE
:10019000B2007894FF91EF91DF91CF91BF91AF9131
:1001A0009F918F917F916F915F914F913F912F918F
:1001B0000F900FBE0F901F90189508C08DE060E063
:1001C0000E9427038DE061E00E94270381E00E94E6
:1001D000E9022091390330913A032817390770F367
:1001E00008C08DE060E00E9427038DE061E00E947E
:1001F000270381E00E94E9022091390330913A03FC
:100200008217930770F30895CF93DF938EEC93E0FA
:1002100040E051E060E070E02AE030E00E945D06DE
:10022000C8E3D1E049915991662757FD6095762F33
:100230008EEC93E02AE030E00E945D0683E0C83354
:10024000D80781F7DF91CF91089580913B0390917A
:100250003C03019751F48DE061E00E9427030E9466
:10026000DD008DE060E00E942703109240031092B1
:100270003F0381E090E090933E0380933D0306C0EE
:1002800061E070E080E090E00E94850280913D0393
:1002900090913E030197A1F3089514C08DE061E0B1
:1002A0000E94270366E970E080E090E00E948502EA
:1002B0008DE060E00E94270366E970E080E090E056
:1002C0000E9485028EEC93E00E94AA04882331F3F9
:1002D00008950F931F938EEC93E00E94AA04882345
:1002E00009F4A6C08EEC93E00E94BE048437910509
:1002F00029F40E9425010E9404019AC083379105C8
:1003000089F48EEC93E060E071E00E946A058EEC67
:1003100093E064E171E00E946A058EEC93E06AE18B
:1003200071E084C080379105B9F48EEC93E00E94AF
:10033000BE04AC0144705070440F551F440F551F4C
:100340009C0122703070220F331F422B81709070FD
:10035000482B4093B1006CC08336910569F48EEC54
:1003600093E00E94AA048823D1F38EEC93E00E94CC
:10037000BE04809338035CC08334910521F440911E
:10038000380350E046C08C369105C9F48EEC93E0FA
:100390000E94AA048230D0F38EEC93E00E94BE0447
:1003A0008C018EEC93E00E94BE04382F20E0202BBD
:1003B000312B337030933A032093390339C08C3496
:1003C000910529F44091390350913A0322C08536B2
:1003D0009105C1F48EEC93E00E94AA048823D1F326
:1003E0008EEC93E00E94BE04C19739F481E090E066
:1003F00090933C0380933B031BC010923C031092EC
:100400003B0316C08534910569F440913B0350913C
:100410003C0360E070E08EEC93E02AE030E00E9464
:100420005D0606C08EEC93E06CE171E00E946A0507
:100430001F910F9108958EEC93E040E052EC61E043
:1004400070E00E94B1038DE061E00E94070310920A
:10045000B00086E08093B10081E0809370008091CD
:1004600038038093B2000E944D0108950E94AF02AC
:100470000E941B020E946901FDCF1F920F920FB6CE
:100480000F9211242F933F938F939F93AF93BF931A
:100490008091450390914603A0914703B091480392
:1004A000309149030196A11DB11D232F2D5F2D37DA
:1004B00020F02D570196A11DB11D20934903809373
:1004C000450390934603A0934703B093480380915C
:1004D000410390914203A0914303B09144030196DC
:1004E000A11DB11D8093410390934203A093430348
:1004F000B0934403BF91AF919F918F913F912F9102
:100500000F900FBE0F901F901895EF92FF920F93D0
:100510001F937B018C018FB7F89440914503509154
:10052000460360914703709148038FBF2FB7F8943B
:100530008091450390914603A0914703B0914803F1
:100540002FBF841B950BA60BB70BE816F9060A07FD
:100550001B0760F71F910F91FF90EF90089578941B
:1005600084B5826084BD84B5816084BD85B58260B8
:1005700085BD85B5816085BDEEE6F0E08081816056
:100580008083E1E8F0E08081826080838081816007
:100590008083E0E8F0E0808181608083E1EBF0E03F
:1005A000808184608083E0EBF0E0808181608083E3
:1005B000EAE7F0E0808184608083808182608083CC
:1005C0008081816080838081806880831092C100F7
:1005D00008958F7090912D019295990F990F907CAD
:1005E000982B90937C0080917A00806480937A00AD
:1005F00080917A0086FDFCCF2091780040917900AF
:10060000942F80E030E0282B392BC9010895282F42
:1006100030E0C90186569F4FFC0194912A573F4F05
:10062000F9018491882391F0E82FF0E0EE0FFF1F8D
:10063000E859FF4FA591B491662329F48C919095C8
:1006400089238C9308958C91892B8C930895482F3E
:1006500050E0CA0182559F4FFC012491CA01865681
:100660009F4FFC0194914A575F4FFA013491332315
:10067000D1F1222331F1233021F4809180008F7752
:1006800005C0243031F4809180008F7D80938000FC
:1006900018C0213019F484B58F7704C0223021F4BA
:1006A00084B58F7D84BD0DC0263021F48091B000CB
:1006B0008F7705C0273029F48091B0008F7D80931B
:1006C000B000E32FF0E0EE0FFF1FEE58FF4FA591B3
:1006D000B491662329F48C91909589238C93089585
:1006E0008C91892B8C9308951F920F920FB60F92C5
:1006F00011242F933F934F935F936F937F938F9327
:100700009F93AF93BF93EF93FF934091C600E09107
:10071000CA03F091CB03CF01019660E870E00E941C
:1007200087069C018091CC039091CD03281739074F
:1007300039F0E65BFC4F40833093CB032093CA0330
:10074000FF91EF91BF91AF919F918F917F916F91A9
:100750005F914F913F912F910F900FBE0F901F907F
:1007600018955F926F927F928F929F92AF92BF92F5
:10077000CF92DF92EF92FF920F931F93CF93DF936D
:10078000EC013A014B01413482E458078FE06807DD
:1007900080E078070CF07FC060E874E88EE190E0BC
:1007A000A40193010E94BC062150304040405040BB
:1007B000CA01B90122E030E040E050E00E94BC06EE
:1007C00059016A01A60195012095309540955095F3
:1007D00094E0220F331F441F551F9A95D1F760E014
:1007E00074E284EF90E00E94BC06CA01B9012FEFC9
:1007F00030E040E050E00E946806A40193010E94AE
:10080000BC06C90181509F4F181619061CF4522EC0
:100810005A9403C055245394521A60E079E08DE352
:1008200090E0A40193010E94BC062150304040405A
:100830005040CA01B90122E030E040E050E00E949F
:10084000BC06209530954095509583E0220F331FCC
:10085000441F551F8A95D1F760E074E284EF90E061
:100860000E94BC06CA01B9012FEF30E040E050E021
:100870000E946806A40193010E94BC06C901815030
:100880009F4F181619061CF4822F815002C081E078
:10089000821B851500F5E885F98581E090E00A88DE
:1008A00002C0880F991F0A94E2F7808360E079E024
:1008B0008DE390E0A40193010E94BC0621503040DA
:1008C00040405040CA01B90122E030E040E050E031
:1008D0000E94BC0604C0E885F98510829501EC8170
:1008E000FD813083EE81FF812083EA85FB852081B5
:1008F00041E050E0CA010E8402C0880F991F0A949B
:10090000E2F7282B2083EA85FB852081CA010F842A
:1009100002C0880F991F0A94E2F7282B2083EA85EA
:10092000FB858081088802C0440F551F0A94E2F7B6
:10093000842B8083DF91CF911F910F91FF90EF90D7
:10094000DF90CF90BF90AF909F908F907F906F90EF
:100950005F900895DC011296ED91FC911397E05899
:10096000FF4F8191919180589F4F20813181821B4F
:10097000930B60E870E00E9487060895CF93DF93A1
:10098000DC011296ED91FC911397EF01CE57DF4FEA
:1009900048815981E058FF4F80819181E058F040B3
:1009A0008417950719F42FEF3FEF0CC0E40FF51FE4
:1009B0002081CA01019660E870E00E948706998351
:1009C000888330E0C901DF91CF910895FC01A085B3
:1009D000B18521898C9190E0022E02C09595879572
:1009E0000A94E2F780FFF6CF0484F585E02D60835A
:1009F000089582E391E09093CF038093CE038AE43D
:100A000093E09093D1038093D00385EC90E0909392
:100A1000D3038093D20384EC90E09093D50380932A
:100A2000D40380EC90E09093D7038093D60381ECBD
:100A300090E09093D9038093D80386EC90E0909354
:100A4000DB038093DA0384E08093DC0383E080930C
:100A5000DD0387E08093DE0385E08093DF0381E0A0
:100A60008093E00308950F931F93CF93DF938C013E
:100A7000EB0109C02196D801ED91FC910190F08124
:100A8000E02DC801099568816623A1F7DF91CF9118
:100A90001F910F910895EF92FF920F931F93CF93A1
:100AA000DF938C017B01EA010CC0D7016D917D01C0
:100AB000D801ED91FC910190F081E02DC8010995DC
:100AC0002197209791F7DF91CF911F910F91FF9080
:100AD000EF900895DC01ED91FC910280F381E02D0F
:100AE000099508950F931F938C01DC01ED91FC9102
:100AF0000190F081E02D6DE00995D801ED91FC9118
:100B00000190F081E02DC8016AE009951F910F91D5
:100B100008952F923F924F925F926F927F928F92A1
:100B20009F92AF92BF92CF92DF92EF92FF920F937C
:100B30001F93DF93CF93CDB7DEB7A0970FB6F8948E
:100B4000DEBF0FBECDBF1C016A017B0141155105FF
:100B50006105710549F4DC01ED91FC910190F08192
:100B6000E02D60E3099554C0882499245401422E55
:100B700055246624772401E010E00C0F1D1F080D9A
:100B8000191DC701B601A30192010E949A06F8013E
:100B900060830894811C911CA11CB11CC701B60183
:100BA000A30192010E949A06C901DA016C017D013C
:100BB000C114D104E104F104F1F681E0E82EF12C36
:100BC000EC0EFD1EE80CF91C3E010894611C711C22
:100BD000D501C4010197A109B1096C01C818D90850
:100BE00014C0F601EE0DFF1D60816A3010F4605DE7
:100BF00001C0695CD101ED91FC910190F081E02D83
:100C0000C10109950894E108F1086E147F0449F7C1
:100C1000A0960FB6F894DEBF0FBECDBFCF91DF9187
:100C20001F910F91FF90EF90DF90CF90BF90AF900A
:100C30009F908F907F906F905F904F903F902F90FC
:100C40000895EF92FF920F931F93CF93DF93EC01E0
:100C50007A018B0177FF0FC0E881F9810190F08163
:100C6000E02D6DE2099510950095F094E094E11C5B
:100C7000F11C011D111DCE01B801A7012AE00E943F
:100C80008905DF91CF911F910F91FF90EF9008950B
:100C9000DC012115310541F4ED91FC910190F081C9
:100CA000E02D642F099508952A30310519F40E942A
:100CB000210608950E94890508950F931F938C01C2
:100CC0000E944806C8010E9472051F910F91089565
:100CD000629FD001739FF001829FE00DF11D649F20
:100CE000E00DF11D929FF00D839FF00D749FF00DAC
:100CF000659FF00D9927729FB00DE11DF91F639F4D
:100D0000B00DE11DF91FBD01CF011124089597FB1E
:100D1000092E07260AD077FD04D049D006D000203E
:100D20001AF4709561957F4F0895F6F79095819527
:100D30009F4F0895A1E21A2EAA1BBB1BFD010DC0F7
:100D4000AA1FBB1FEE1FFF1FA217B307E407F5077B
:100D500020F0A21BB30BE40BF50B661F771F881F57
:100D6000991F1A9469F760957095809590959B01ED
:100D7000AC01BD01CF01089597FB092E05260ED0C9
:100D800057FD04D0D7DF0AD0001C38F450954095A9
:100D9000309521953F4F4F4F5F4F0895F6F790954F
:100DA0008095709561957F4F8F4F9F4F0895AA1B37
:100DB000BB1B51E107C0AA1FBB1FA617B70710F046
:100DC000A61BB70B881F991F5A95A9F78095909578
:100DD000BC01CD010895EE0FFF1F0590F491E02DA9
:060DE0000994F894FFCF16
:100DE60073636F70656475696E6F2076657273697B
:100DF6006F6E2000302E303032000A00556E6B6E5A
:100E06006F776E20436F6D6D616E640A000100009E
:080E16000000E60433054B0562
:00000001FF
