:100000000C9462000C948A000C948A000C948A0070
:100010000C948A000C948A000C948A000C948A0038
:100020000C948A000C948C000C948A000C948A0026
:100030000C948A000C948A000C948A000C948A0018
:100040000C94DF020C948A000C94F8030C948A0040
:100050000C948A000C948A000C948A000C948A00F8
:100060000C948A000C948A000000000024002700F1
:100070002A0000000000250028002B0000000000DE
:1000800023002600290004040404040404040202DA
:100090000202020203030303030301020408102007
:1000A0004080010204081020010204081020000012
:1000B0000007000201000003040600000000000029
:1000C00000007D0511241FBECFEFD8E0DEBFCDBFFD
:1000D00011E0A0E0B1E0EEEEFEE002C005900D926E
:1000E000AE32B107D9F715E0AEE2B1E001C01D9222
:1000F000A43DB107E1F710E0C4ECD0E004C02297C2
:10010000FE010E947107C23CD107C9F70E94BA02E2
:100110000C9475070C9400001F920F920FB60F926B
:1001200011240F931F932F933F934F935F936F93DC
:100130007F938F939F93AF93BF93CF93DF93EF936F
:10014000FF93F8948091300590913105019779F5EE
:10015000C0913205D0913305CF3FD10531F028F061
:10016000109231051092300522C080912E050E9418
:10017000C102CC0FDD1FC25DDE4F998388830091E1
:1001800032051091330580911C010E94C102000FBD
:10019000111F025D1C4FF80191838083809132050D
:1001A00090913305019690933305809332058091A9
:1001B0001E018093B2007894FF91EF91DF91CF916F
:1001C000BF91AF919F918F917F916F915F914F916F
:1001D0003F912F911F910F910F900FBE0F901F9085
:1001E000189508C08DE060E00E94AB038DE061E0EF
:1001F0000E94AB0381E00E94C10220911F01309157
:1002000020012817390770F308C08DE060E00E94D4
:10021000AB038DE061E00E94AB0381E00E94C1026C
:1002200020911F01309120018217930770F30895E8
:100230008091210190912201019751F48DE061E0BC
:100240000E94AB030E94F1008DE060E00E94AB03CE
:10025000109233051092320581E090E090933105C1
:100260008093300506C061E070E080E090E00E947D
:10027000270380913005909131050197A1F30895EE
:10028000CF93DF9381EC95E040E051E060E070E0D7
:100290002AE030E00E94E106CEE2D1E04991599196
:1002A000662757FD6095762F81EC95E02AE030E0D7
:1002B0000E94E10683E0CE32D80781F781EC95E019
:1002C00040E051E060E070E02AE030E00E94E106AA
:1002D000CEE2D3E049915991662757FD6095762F7C
:1002E00081EC95E02AE030E00E94E10685E0CE3224
:1002F000D80781F7DF91CF91089514C08DE061E0B8
:100300000E94AB0366E970E080E090E00E94270362
:100310008DE060E00E94AB0366E970E080E090E071
:100320000E94270381EC95E00E942E05882331F37B
:1003300008950F931F9381EC95E00E942E0588236A
:1003400009F4BFC081EC95E00E9442058437910515
:1003500029F40E9418010E944001B3C0833791051F
:1003600099F481EC95E060E071E00E94EE0581EC8B
:1003700095E064E171E00E94EE0581EC95E06AE1B0
:1003800071E00E94EE059DC080379105B9F481ECC3
:1003900095E00E944205AC0144705070440F551F17
:1003A000440F551F9C0122703070220F331F422BC7
:1003B00081709070482B4093B10083C083369105C3
:1003C00069F481EC95E00E942E058823D1F381EC3D
:1003D00095E00E94420580931E0173C0833491050D
:1003E00021F440911E0150E023C08C369105C9F4E0
:1003F00081EC95E00E942E058230D0F381EC95E0EF
:100400000E9442058C0181EC95E00E944205382F44
:1004100020E0202B312B33703093200120931F01DB
:1004200050C08C34910569F440911F015091200116
:1004300060E070E081EC95E02AE030E00E94E106A7
:1004400040C085369105C1F481EC95E00E942E05EF
:100450008823D1F381EC95E00E944205C19739F4DD
:1004600081E090E090932201809321012AC01092B4
:1004700022011092210125C08534910529F4409173
:10048000210150912201D4CF81EC95E00E942E05EC
:100490008823D1F381EC95E00E94420580339105D9
:1004A00029F410922F0510922E050BC0C19719F454
:1004B00081E090E002C082E090E090932F0580936D
:1004C0002E051F910F91089581EC95E040E052ECCC
:1004D00061E070E00E943504EAE7F0E080818B7F04
:1004E00080838081826080838081816080838DE0D1
:1004F00061E00E948B038EE060E00E948B038EE03F
:1005000061E00E94AB038FE060E00E948B038FE00C
:1005100061E00E94AB0380E160E00E948B0380E118
:1005200061E00E94AB0381E160E00E948B0381E106
:1005300061E00E94AB0382E160E00E948B0382E1F4
:1005400061E00E94AB0383E160E00E948B0383E1E2
:1005500061E00E94AB031092B00085E08093B1008F
:1005600081E08093700080911E018093B2000E9410
:100570007D0108950E9451030E9464020E94990126
:10058000FDCF8F70909123019295990F990F907CD8
:10059000982B90937C0080917A00806480937A00FD
:1005A00080917A0086FDFCCF2091780040917900FF
:1005B000942F80E030E0282B392BC90108951F9239
:1005C0000F920FB60F9211242F933F938F939F9307
:1005D000AF93BF938091380590913905A0913A056A
:1005E000B0913B0530913C050196A11DB11D232F13
:1005F0002D5F2D3720F02D570196A11DB11D2093A1
:100600003C058093380590933905A0933A05B09343
:100610003B058091340590913505A0913605B09148
:1006200037050196A11DB11D8093340590933505C2
:10063000A0933605B0933705BF91AF919F918F91ED
:100640003F912F910F900FBE0F901F901895EF9232
:10065000FF920F931F937B018C018FB7F894409109
:1006600038055091390560913A0570913B058FBF6F
:100670002FB7F8948091380590913905A0913A05EB
:10068000B0913B052FBF841B950BA60BB70BE8164B
:10069000F9060A071B0760F71F910F91FF90EF9073
:1006A0000895789484B5826084BD84B5816084BDEA
:1006B00085B5826085BD85B5816085BDEEE6F0E0DB
:1006C000808181608083E1E8F0E0808182608083C6
:1006D000808181608083E0E8F0E0808181608083B8
:1006E000E1EBF0E0808184608083E0EBF0E08081EA
:1006F00081608083EAE7F0E080818460808380818C
:100700008260808380818160808380818068808333
:100710001092C1000895282F30E0C90186569F4FDE
:10072000FC0194912A573F4FF9018491882391F05D
:10073000E82FF0E0EE0FFF1FE859FF4FA591B491AD
:10074000662329F48C91909589238C9308958C913C
:10075000892B8C930895482F50E0CA0182559F4FF2
:10076000FC012491CA0186569F4FFC0194914A577F
:100770005F4FFA0134913323D1F1222331F1233039
:1007800021F4809180008F7705C0243031F480916E
:1007900080008F7D8093800018C0213019F484B5CB
:1007A0008F7704C0223021F484B58F7D84BD0DC0C5
:1007B000263021F48091B0008F7705C0273029F4CE
:1007C0008091B0008F7D8093B000E32FF0E0EE0FBA
:1007D000FF1FEE58FF4FA591B491662329F48C9129
:1007E000909589238C9308958C91892B8C930895EF
:1007F0001F920F920FB60F9211242F933F934F9396
:100800005F936F937F938F939F93AF93BF93EF9378
:10081000FF934091C600E091BD05F091BE05CF0168
:10082000019660E870E00E940B079C018091BF0573
:100830009091C0052817390739F0E35CFA4F4083DF
:100840003093BE052093BD05FF91EF91BF91AF910D
:100850009F918F917F916F915F914F913F912F91D8
:100860000F900FBE0F901F9018955F926F927F921E
:100870008F929F92AF92BF92CF92DF92EF92FF92B0
:100880000F931F93CF93DF93EC013A014B01413457
:1008900082E458078FE0680780E078070CF07FC09B
:1008A00060E874E88EE190E0A40193010E944007A3
:1008B0002150304040405040CA01B90122E030E0B0
:1008C00040E050E00E94400759016A01A6019501ED
:1008D000209530954095509594E0220F331F441F8A
:1008E000551F9A95D1F760E074E284EF90E00E9482
:1008F0004007CA01B9012FEF30E040E050E00E940C
:10090000EC06A40193010E944007C90181509F4F4A
:10091000181619061CF4522E5A9403C055245394E9
:10092000521A60E079E08DE390E0A40193010E9407
:1009300040072150304040405040CA01B90122E0F8
:1009400030E040E050E00E9440072095309540950F
:10095000509583E0220F331F441F551F8A95D1F70E
:1009600060E074E284EF90E00E944007CA01B901A0
:100970002FEF30E040E050E00E94EC06A40193012C
:100980000E944007C90181509F4F181619061CF498
:10099000822F815002C081E0821B851500F5E88519
:1009A000F98581E090E00A8802C0880F991F0A94B7
:1009B000E2F7808360E079E08DE390E0A4019301A9
:1009C0000E9440072150304040405040CA01B901C8
:1009D00022E030E040E050E00E94400704C0E8859B
:1009E000F98510829501EC81FD813083EE81FF81D4
:1009F0002083EA85FB85208141E050E0CA010E8416
:100A000002C0880F991F0A94E2F7282B2083EA85F9
:100A1000FB852081CA010F8402C0880F991F0A94A8
:100A2000E2F7282B2083EA85FB858081088802C0B5
:100A3000440F551F0A94E2F7842B8083DF91CF91F6
:100A40001F910F91FF90EF90DF90CF90BF90AF90EC
:100A50009F908F907F906F905F900895DC01129629
:100A6000ED91FC911397E058FF4F8191919180583F
:100A70009F4F20813181821B930B60E870E00E94C0
:100A80000B070895CF93DF93DC011296ED91FC9153
:100A90001397EF01CE57DF4F48815981E058FF4F40
:100AA00080819181E058F0408417950719F42FEF69
:100AB0003FEF0CC0E40FF51F2081CA01019660E8EA
:100AC00070E00E940B079983888330E0C901DF91B1
:100AD000CF910895FC01A085B18521898C9190E08A
:100AE000022E02C0959587950A94E2F780FFF6CF13
:100AF0000484F585E02D6083089588E291E0909369
:100B0000C2058093C1058DE395E09093C405809361
:100B1000C30585EC90E09093C6058093C50584ECF1
:100B200090E09093C8058093C70580EC90E0909387
:100B3000CA058093C90581EC90E09093CC05809321
:100B4000CB0586EC90E09093CE058093CD0584E0B4
:100B50008093CF0583E08093D00587E08093D10513
:100B600085E08093D20581E08093D30508950F93AB
:100B70001F93CF93DF938C01EB0109C02196D8011D
:100B8000ED91FC910190F081E02DC80109956881FB
:100B90006623A1F7DF91CF911F910F910895EF92F6
:100BA000FF920F931F93CF93DF938C017B01EA0198
:100BB0000CC0D7016D917D01D801ED91FC910190A0
:100BC000F081E02DC80109952197209791F7DF91D9
:100BD000CF911F910F91FF90EF900895DC01ED915F
:100BE000FC910280F381E02D099508950F931F93E6
:100BF0008C01DC01ED91FC910190F081E02D6DE024
:100C00000995D801ED91FC910190F081E02DC8018A
:100C10006AE009951F910F9108952F923F924F928C
:100C20005F926F927F928F929F92AF92BF92CF927C
:100C3000DF92EF92FF920F931F93DF93CF93CDB785
:100C4000DEB7A0970FB6F894DEBF0FBECDBF1C0174
:100C50006A017B01411551056105710549F4DC010B
:100C6000ED91FC910190F081E02D60E3099554C075
:100C7000882499245401422E55246624772401E0C7
:100C800010E00C0F1D1F080D191DC701B601A301AF
:100C900092010E941E07F80160830894811C911C38
:100CA000A11CB11CC701B601A30192010E941E073D
:100CB000C901DA016C017D01C114D104E104F10420
:100CC000F1F681E0E82EF12CEC0EFD1EE80CF91C8B
:100CD0003E010894611C711CD501C4010197A10952
:100CE000B1096C01C818D90814C0F601EE0DFF1D3A
:100CF00060816A3010F4605D01C0695CD101ED91E2
:100D0000FC910190F081E02DC10109950894E10862
:100D1000F1086E147F0449F7A0960FB6F894DEBF71
:100D20000FBECDBFCF91DF911F910F91FF90EF903C
:100D3000DF90CF90BF90AF909F908F907F906F90FB
:100D40005F904F903F902F900895EF92FF920F93F6
:100D50001F93CF93DF93EC017A018B0177FF0FC0D4
:100D6000E881F9810190F081E02D6DE209951095FF
:100D70000095F094E094E11CF11C011D111DCE01C1
:100D8000B801A7012AE00E940D06DF91CF911F91C3
:100D90000F91FF90EF900895DC012115310541F48A
:100DA000ED91FC910190F081E02D642F099508955B
:100DB0002A30310519F40E94A50608950E940D06F7
:100DC00008950F931F938C010E94CC06C8010E94C6
:100DD000F6051F910F910895629FD001739FF00156
:100DE000829FE00DF11D649FE00DF11D929FF00DBB
:100DF000839FF00D749FF00D659FF00D9927729FF2
:100E0000B00DE11DF91F639FB00DE11DF91FBD017C
:100E1000CF011124089597FB092E07260AD077FDEC
:100E200004D049D006D000201AF4709561957F4F08
:100E30000895F6F7909581959F4F0895A1E21A2E97
:100E4000AA1BBB1BFD010DC0AA1FBB1FEE1FFF1F6E
:100E5000A217B307E407F50720F0A21BB30BE40BBE
:100E6000F50B661F771F881F991F1A9469F7609505
:100E70007095809590959B01AC01BD01CF010895BF
:100E800097FB092E05260ED057FD04D0D7DF0AD0D8
:100E9000001C38F450954095309521953F4F4F4FA9
:100EA0005F4F0895F6F790958095709561957F4F07
:100EB0008F4F9F4F0895AA1BBB1B51E107C0AA1F6C
:100EC000BB1FA617B70710F0A61BB70B881F991FEB
:100ED0005A95A9F780959095BC01CD010895EE0F24
:0E0EE000FF1F0590F491E02D0994F894FFCFC8
:100EEE0073636F70656475696E6F20766572736972
:100EFE006F6E2000302E303032000A000400FE00EB
:0E0F0E0002010001000000006A05B705CF05D2
:00000001FF
