:100000000C9462000C948A000C948A000C948A0070
:100010000C948A000C948A000C948A000C948A0038
:100020000C948A000C948A000C948A000C948A0028
:100030000C948A000C948A000C948A000C948A0018
:100040000C9431010C948A000C9468020C948A0080
:100050000C948A000C948A000C948A000C948A00F8
:100060000C948A000C948A000000000024002700F1
:100070002A0000000000250028002B0000000000DE
:1000800023002600290004040404040404040202DA
:100090000202020203030303030301020408102007
:1000A0004080010204081020010204081020000012
:1000B0000007000201000003040600000000000029
:1000C0000000ED0311241FBECFEFD8E0DEBFCDBF8F
:1000D00011E0A0E0B1E0EEECFBE002C005900D9273
:1000E000A833B107D9F713E0A8E3B1E001C01D922E
:1000F000A83DB107E1F710E0C4ECD0E004C02297BE
:10010000FE010E94E105C23CD107C9F70E942A0105
:100110000C94E5050C940000CF93DF938DE061E033
:100120000E941B02C8E3D1E081E00E94DD018993B7
:10013000999383E0C833D807B9F78DE060E00E9457
:100140001B02DF91CF910895CF93DF9385EC93E06D
:1001500040E051E060E070E02AE030E00E945105AC
:10016000C8E3D1E049915991662757FD6095762FF4
:1001700085EC93E02AE030E00E94510583E0C8332B
:10018000D80781F7DF91CF91089514C08DE061E029
:100190000E941B0266E970E080E090E00E94790115
:1001A0008DE060E00E941B0266E970E080E090E074
:1001B0000E94790185EC93E00E949E03882331F32D
:1001C000089585EC93E00E949E03882341F185EC1D
:1001D00093E00E94B2038437910529F40E948C00B9
:1001E0000E94A40008958337910599F485EC93E06B
:1001F00060E071E00E945E0485EC93E064E171E0F0
:100200000E945E0485EC93E06AE171E00E945E0466
:10021000089585EC93E06CE171E00E945E0408951E
:1002200085EC93E040E052EC61E070E00E94A502B2
:100230008DE061E00E94FB01EAE7F0E080818460EC
:10024000808380818D7F808380818E7F80830E94E8
:10025000C50008950E94A3010E9410010E94E100C0
:10026000FDCF1F920F920FB60F9211242F933F9341
:100270008F939F93AF93BF9380913C0390913D03E5
:10028000A0913E03B0913F03309140030196A11D20
:10029000B11D232F2D5F2D3720F02D570196A11D65
:1002A000B11D2093400380933C0390933D03A093A2
:1002B0003E03B0933F038091380390913903A0919E
:1002C0003A03B0913B030196A11DB11D8093380301
:1002D00090933903A0933A03B0933B03BF91AF913E
:1002E0009F918F913F912F910F900FBE0F901F9074
:1002F0001895EF92FF920F931F937B018C018FB79C
:10030000F89440913C0350913D0360913E037091FD
:100310003F038FBF2FB7F89480913C0390913D032A
:10032000A0913E03B0913F032FBF841B950BA60BFA
:10033000B70BE816F9060A071B0760F71F910F9124
:10034000FF90EF900895789484B5826084BD84B561
:10035000816084BD85B5826085BD85B5816085BDC0
:10036000EEE6F0E0808181608083E1E8F0E080816A
:1003700082608083808181608083E0E8F0E080811A
:1003800081608083E1EBF0E0808184608083E0EB3A
:10039000F0E0808181608083EAE7F0E08081846022
:1003A000808380818260808380818160808380817E
:1003B000806880831092C10008958F7090912D0104
:1003C0009295990F990F907C982B90937C00809137
:1003D0007A00806480937A0080917A0086FDFCCF59
:1003E0002091780040917900942F80E030E0282B14
:1003F000392BC9010895282F30E0C90186569F4F37
:10040000FC0194912A573F4FF9018491882391F080
:10041000E82FF0E0EE0FFF1FE859FF4FA591B491D0
:10042000662329F48C91909589238C9308958C915F
:10043000892B8C930895482F50E0CA0182559F4F15
:10044000FC012491CA0186569F4FFC0194914A57A2
:100450005F4FFA0134913323D1F1222331F123305C
:1004600021F4809180008F7705C0243031F4809191
:1004700080008F7D8093800018C0213019F484B5EE
:100480008F7704C0223021F484B58F7D84BD0DC0E8
:10049000263021F48091B0008F7705C0273029F4F1
:1004A0008091B0008F7D8093B000E32FF0E0EE0FDD
:1004B000FF1FEE58FF4FA591B491662329F48C914C
:1004C000909589238C9308958C91892B8C93089512
:1004D0001F920F920FB60F9211242F933F934F93B9
:1004E0005F936F937F938F939F93AF93BF93EF939C
:1004F000FF934091C600E091C103F091C203CF0188
:10050000019660E870E00E947B059C018091C30326
:100510009091C4032817390739F0EF5BFC4F4083F3
:100520003093C2032093C103FF91EF91BF91AF912C
:100530009F918F917F916F915F914F913F912F91FB
:100540000F900FBE0F901F9018955F926F927F9241
:100550008F929F92AF92BF92CF92DF92EF92FF92D3
:100560000F931F93CF93DF93EC013A014B0141347A
:1005700082E458078FE0680780E078070CF07FC0BE
:1005800060E874E88EE190E0A40193010E94B00558
:100590002150304040405040CA01B90122E030E0D3
:1005A00040E050E00E94B00559016A01A6019501A2
:1005B000209530954095509594E0220F331F441FAD
:1005C000551F9A95D1F760E074E284EF90E00E94A5
:1005D000B005CA01B9012FEF30E040E050E00E94C1
:1005E0005C05A40193010E94B005C90181509F4F91
:1005F000181619061CF4522E5A9403C0552453940D
:10060000521A60E079E08DE390E0A40193010E942A
:10061000B0052150304040405040CA01B90122E0AD
:1006200030E040E050E00E94B005209530954095C4
:10063000509583E0220F331F441F551F8A95D1F731
:1006400060E074E284EF90E00E94B005CA01B90155
:100650002FEF30E040E050E00E945C05A4019301E0
:100660000E94B005C90181509F4F181619061CF44D
:10067000822F815002C081E0821B851500F5E8853C
:10068000F98581E090E00A8802C0880F991F0A94DA
:10069000E2F7808360E079E08DE390E0A4019301CC
:1006A0000E94B0052150304040405040CA01B9017D
:1006B00022E030E040E050E00E94B00504C0E88550
:1006C000F98510829501EC81FD813083EE81FF81F7
:1006D0002083EA85FB85208141E050E0CA010E8439
:1006E00002C0880F991F0A94E2F7282B2083EA851D
:1006F000FB852081CA010F8402C0880F991F0A94CC
:10070000E2F7282B2083EA85FB858081088802C0D8
:10071000440F551F0A94E2F7842B8083DF91CF9119
:100720001F910F91FF90EF90DF90CF90BF90AF900F
:100730009F908F907F906F905F900895DC0112964C
:10074000ED91FC911397E058FF4F81919191805862
:100750009F4F20813181821B930B60E870E00E94E3
:100760007B050895CF93DF93DC011296ED91FC9108
:100770001397EF01CE57DF4F48815981E058FF4F63
:1007800080819181E058F0408417950719F42FEF8C
:100790003FEF0CC0E40FF51F2081CA01019660E80D
:1007A00070E00E947B059983888330E0C901DF9166
:1007B000CF910895FC01A085B18521898C9190E0AD
:1007C000022E02C0959587950A94E2F780FFF6CF36
:1007D0000484F585E02D6083089582E391E0909391
:1007E000C6038093C50381E493E09093C80380938C
:1007F000C70385EC90E09093CA038093C90384EC0F
:1008000090E09093CC038093CB0380EC90E09093A6
:10081000CE038093CD0381EC90E09093D00380933E
:10082000CF0386EC90E09093D2038093D10384E0D1
:100830008093D30383E08093D40387E08093D50330
:1008400085E08093D60381E08093D70308950F93CA
:100850001F93CF93DF938C01EB0109C02196D80140
:10086000ED91FC910190F081E02DC801099568811E
:100870006623A1F7DF91CF911F910F910895EF9219
:10088000FF920F931F93CF93DF938C017B01EA01BB
:100890000CC0D7016D917D01D801ED91FC910190C3
:1008A000F081E02DC80109952197209791F7DF91FC
:1008B000CF911F910F91FF90EF900895DC01ED9182
:1008C000FC910280F381E02D099508950F931F9309
:1008D0008C01DC01ED91FC910190F081E02D6DE047
:1008E0000995D801ED91FC910190F081E02DC801AE
:1008F0006AE009951F910F9108952F923F924F92B0
:100900005F926F927F928F929F92AF92BF92CF929F
:10091000DF92EF92FF920F931F93DF93CF93CDB7A8
:10092000DEB7A0970FB6F894DEBF0FBECDBF1C0197
:100930006A017B01411551056105710549F4DC012E
:10094000ED91FC910190F081E02D60E3099554C098
:10095000882499245401422E55246624772401E0EA
:1009600010E00C0F1D1F080D191DC701B601A301D2
:1009700092010E948E05F80160830894811C911CED
:10098000A11CB11CC701B601A30192010E948E05F2
:10099000C901DA016C017D01C114D104E104F10443
:1009A000F1F681E0E82EF12CEC0EFD1EE80CF91CAE
:1009B0003E010894611C711CD501C4010197A10975
:1009C000B1096C01C818D90814C0F601EE0DFF1D5D
:1009D00060816A3010F4605D01C0695CD101ED9105
:1009E000FC910190F081E02DC10109950894E10886
:1009F000F1086E147F0449F7A0960FB6F894DEBF95
:100A00000FBECDBFCF91DF911F910F91FF90EF905F
:100A1000DF90CF90BF90AF909F908F907F906F901E
:100A20005F904F903F902F900895EF92FF920F9319
:100A30001F93CF93DF93EC017A018B0177FF0FC0F7
:100A4000E881F9810190F081E02D6DE20995109522
:100A50000095F094E094E11CF11C011D111DCE01E4
:100A6000B801A7012AE00E947D04DF91CF911F9178
:100A70000F91FF90EF900895DC012115310541F4AD
:100A8000ED91FC910190F081E02D642F099508957E
:100A90002A30310519F40E94150508950E947D043D
:100AA00008950F931F938C010E943C05C8010E947A
:100AB00066041F910F910895629FD001739FF0010A
:100AC000829FE00DF11D649FE00DF11D929FF00DDE
:100AD000839FF00D749FF00D659FF00D9927729F15
:100AE000B00DE11DF91F639FB00DE11DF91FBD01A0
:100AF000CF011124089597FB092E07260AD077FD10
:100B000004D049D006D000201AF4709561957F4F2B
:100B10000895F6F7909581959F4F0895A1E21A2EBA
:100B2000AA1BBB1BFD010DC0AA1FBB1FEE1FFF1F91
:100B3000A217B307E407F50720F0A21BB30BE40BE1
:100B4000F50B661F771F881F991F1A9469F7609528
:100B50007095809590959B01AC01BD01CF010895E2
:100B600097FB092E05260ED057FD04D0D7DF0AD0FB
:100B7000001C38F450954095309521953F4F4F4FCC
:100B80005F4F0895F6F790958095709561957F4F2A
:100B90008F4F9F4F0895AA1BBB1B51E107C0AA1F8F
:100BA000BB1FA617B70710F0A61BB70B881F991F0E
:100BB0005A95A9F780959095BC01CD010895EE0F47
:0E0BC000FF1F0590F491E02D0994F894FFCFEB
:100BCE0073636F70656475696E6F20766572736995
:100BDE006F6E2000302E303031000A00556E6B6E75
:100BEE006F776E20436F6D6D616E640A00010000B9
:080BFE000000DA0327043F04A4
:00000001FF
